:020000040800F2
:1000000028050020010100084F110008A50F000875
:100010004D110008490100081115000800000000FA
:100020000000000000000000000000007311000844
:100030004B01000800000000711100087511000854
:100040001B0100081B0100081B0100081B01000820
:100050001B0100081B0100081B0100081B01000810
:100060001B0100081B0100081B0100081B01000800
:100070001B0100081B0100081B0100081B010008F0
:100080001B0100081B0100081B0100081B010008E0
:100090001B0100081B0100081B0100084D0100089E
:1000A0001B0100081B0100081B0100081B010008C0
:1000B0002D120008711200087D1200081B010008B3
:1000C0001B0100081B0100081B0100081B010008A0
:1000D0001B0100081B0100081B0100081B01000890
:1000E0001B0100081B0100081B010008DFF80CD0F1
:1000F00000F018F8004800473115000828050020D6
:100100000648804706480047FEE7FEE7FEE7FEE7B1
:10011000FEE7FEE7FEE7FEE7FEE7FEE7E511000883
:10012000ED000008064C074D06E0E06840F00103D2
:1001300094E8070098471034AC42F6D3FFF7DAFF93
:100140003016000850160008FEE7704770B5214EC3
:10015000214C6FF001003178251D31B31F490A6829
:1001600022F001020A601D4924310A681C4B1A80E2
:1001700000220A603270296821F4807129602168A8
:1001800041F480712160174909680861154800F041
:1001900037FD144800F041FD172000F0B3F9BDE829
:1001A00070404FF4807000F035B80F49096808615D
:1001B0000D4800F025FD0C4800F02FFD01203070A7
:1001C000206820F480702060286840F480702860E7
:1001D000E2E7000014000020080401400004004091
:1001E00000000020280000206800002070B50446B0
:1001F00000F000F90546601C02D004480078044471
:1002000000F0F8F8401BA042FAD370BD180000209F
:1002100070470000044910B50A68024202D0086025
:10022000FFF7F6FF10BD0000140401402DE9F84F60
:10023000DFF890A100220AF1040B144601274FF0C9
:100240000F090BF1040E00BF0B6807FA04F52B40F1
:10025000AB4274D1DFF870C14E68A6EB0C0866455E
:100260002BD00DDC032E34D005DC36B3012E19D093
:10027000022E2FD11BE0112E16D0122E2AD119E0FA
:10028000B8F5881F19D006DCB8F5803F15D0B8F551
:10029000801F1FD111E0B8F5001F0ED0B8F5041F64
:1002A00018D10AE0CA6815E0CA68121D12E0CA68CF
:1002B00008320FE0CA680C320CE08A682AB1012AC1
:1002C0004FF0080203D0456104E0042202E005611A
:1002D00000E00022FF2B01D8064601E000F10406F1
:1002E0004FEA840501D9A5F12005D6F800C009FA26
:1002F00005F82CEA080C02FA05F54CEA050CC6F8DC
:1003000000C04D68ED0057D5304DAE6946F001068E
:10031000AE61AD6924F0030605F0010500952C4D92
:1003200006EB050CDCF80850A6074FEA167809FA28
:1003300008F6B543274EB04202D1002610E03BE05C
:10034000254EB04201D101260AE0244EB04201D12F
:10035000022605E0224EB04201D1032600E0042629
:1003600006FA08F62E43CCF808604D68DAF800600B
:10037000ED03554601D51E4300E09E432E604D68B7
:10038000DBF80060AD035D4601D51E4300E09E43EF
:100390002E604D68DEF80060ED02754601D51E4303
:1003A00000E09E432E604D68AD020E4D2E6801D5D3
:1003B0001E4300E09E432E60641C102CFFF444AFEB
:1003C000BDE8F88F00040140000011100010024049
:1003D0000000014000080140000C014000100140F5
:1003E000001401400C0401400AB101617047090486
:1003F000FBE70000014880687047000018000020FB
:10040000024881680278114481607047180000201A
:10041000074810B5016841F010010160032000F0A9
:10042000A7F8002000F006F800F024F8002010BD26
:100430000020024070B50D4D04464FF47A712878C3
:10044000B1FBF0F00A490968B1FBF0F000F037FBAE
:1004500048B9102C07D200222146501E00F068F83F
:1004600000206C6070BD012070BD000018000020ED
:1004700024000020214808B5816941F00101816113
:10048000816901F001010091C16941F08051C161B0
:10049000C06900F080500090032000F069F800224D
:1004A00011466FF00B0000F043F8002211466FF088
:1004B0000A0000F03DF8002211466FF0090000F03C
:1004C00037F800221146501F00F032F80022114682
:1004D000101F00F02DF800221146901E00F028F8A1
:1004E00000221146501E00F023F80548416821F013
:1004F000E06141F00071416008BD00000010024061
:100500000000014000F01F020121914040098000DD
:1005100000F1E020C0F88012704700F01F020121B6
:1005200091404009800000F1E020C0F800117047C0
:10053000F0B40E4B1B680C46C3F30223C3F107054E
:10054000042D00D90425191D072901D2002300E03C
:10055000DB1E012606FA05F1491E214099409E4006
:10056000761E16403143F0BC00F0F2BD0CED00E009
:10057000064900F0070208684FF6FF03184040EAFA
:100580000220034A10430860704700000CED00E0B1
:100590000000FA052DE9F047DFF83C8105460E46DC
:1005A000D8F8000000F00700B0420CD2D8F80010D4
:1005B00021F007013143C8F80010D8F8000000F01E
:1005C0000700B04263D12878444C800705D56068A5
:1005D000A96820F0F000084360602878C00745D083
:1005E0006868012816D02168022816D089070029DA
:1005F0004DDA616821F0030101436160FFF7FAFE03
:100600006968074641F2883001290FD002298146E6
:1006100019D027E021688903E9E78901E7E700BFEE
:10062000FFF7E8FEC11B494501D918E08146606823
:10063000C0F381000128F3D118E000BFFFF7DAFE14
:10064000C11B49450BD86068C0F381000228F5D171
:100650000CE000BFFFF7CEFEC11B494502D90320C5
:10066000BDE8F087606810F00C0FF3D1D8F80010E7
:10067000404601F00701B1420BD9016821F00701A2
:1006800031430160006800F00700B04201D0012052
:10069000E6E72878400705D56068E96820F4E0605F
:1006A000084360602878000706D56068296920F44F
:1006B000605040EAC100606000F03CF86168084AA0
:1006C000C1F30311515CC840064908600020FFF7E0
:1006D000B1FE0020C4E700000020024000100240EC
:1006E0001816000824000020014800687047000028
:1006F000240000200448054900684968044AC1F301
:100700000221515CC84070472400002000100240C4
:10071000281600080448054900684968044AC1F3DE
:10072000C221515CC84070472400002000100240E4
:100730002816000812A185B00FC98DE80F0014A07B
:10074000144A006804905168134801F00C03042B0C
:1007500010D0082B0ED1C1F38343C9031DF8030049
:100760000AD5516804AAC1F34041515C0A4A50437A
:10077000B0FBF1F005B0704708494843FAE70000C4
:1007800002030405060708090A0B0C0D0E0F1010D2
:10079000010200000010024000127A0000093D0032
:1007A0002DE9F84F04460078B94DC00748D0686875
:1007B000C0F38100012807D06868C0F381000228D7
:1007C00009D16868C00306D52868800338D56068F9
:1007D00000286FD034E06068B0F5803F0BD010B1D6
:1007E000B0F5A02F11D0286820F480302860286848
:1007F00020F4802002E0286840F48030286060689F
:1008000088B1FFF7F7FD064609E0286840F480202C
:100810002860F0E7FFF7EEFD801B642875D8286894
:100820008003F7D50CE0FFF7E5FD064605E000BFC5
:10083000FFF7E0FD801B6428F0D828688003F7D418
:100840002078944E80074FF001094FF000083BD507
:10085000686810F00C0F07D06868C0F381000228A8
:1008600009D16868C00306D42868800714D52069B8
:1008700001281FD110E02069B0B1C6F80090FFF741
:10088000B9FD074605E000BFFFF7B4FDC01B022815
:10089000C4D828688007F7D52868616920F0F80077
:1008A00040EAC10028600FE0C6F80080FFF7A2FD13
:1008B000074606E0E9E000BFFFF79CFDC01B0228E9
:1008C00023D828688007F7D4207800072CD57248F1
:1008D000A169D9B1C0F80090FFF78CFD074604E08C
:1008E000FFF788FDC01B02280FD8686A8007F7D57C
:1008F0006A484FF4FA510068B0FBF1F0009000BF75
:100900000098411E0091FAD20EE080E0C0F800800D
:10091000FFF770FD074604E0FFF76CFDC01B0228DF
:1009200075D8686A8007F7D42078400760D5E869F1
:100930000027C00008D4E86940F08050E861E86909
:10094000012700F08050009055480168C90513D474
:100950000168834641F480710160FFF74BFD8246D8
:1009600006E000BFFFF746FDA0EB0A0064284ED862
:10097000DBF80000C005F5D5E06801280AD008B111
:10098000052813D0286A20F001002862286A20F088
:10099000040002E0286A40F001002862E06841F2A9
:1009A000883B98B1FFF726FD82460BE0286A40F0AD
:1009B00004002862EEE700BFFFF71CFDA0EB0A0170
:1009C00059455AD8286A8007F6D50CE0FFF712FD82
:1009D000824605E0FFF70EFDA0EB0A0159454CD811
:1009E000286A8007F6D41FB1E86920F08050E861DA
:1009F000E06988B36968C1F38101022945D0022802
:100A0000C6F8608004D0FFF7F5FC044638E034E017
:100A1000FFF7F0FC074604E0FFF7ECFCC01B0228E0
:100A20002BD828688001F7D4206AB0F5803F05D123
:100A30006868A16820F4003008436860D4E90801C0
:100A40000843696821F4741108436860C6F860902F
:100A5000FFF7D0FC044606E015E000BFFFF7CAFC34
:100A6000001B022809D828688001F7D50BE000BFD9
:100A7000FFF7C0FC001B022802D90320BDE8F88F55
:100A800028688001F4D40020F8E70120F6E7000090
:100A90000010024000004242800442422400002034
:100AA000007000404FF0E0210428086903D020F0D6
:100AB00004000861704740F00400FAE7704710B581
:100AC000401EB0F1807F01D3012010BD4FF0E02423
:100AD00060610F21601700F03BFB0020A061072040
:100AE0002061002010BD10B5FFF7E8FF10BD704772
:100AF000704730B590F83C20012A20D0012280F8C0
:100B00003C20022380F83D3003685C6824F07004C8
:100B10005C6003685C680D682C435C6003689C68DB
:100B200024F080049C6003689C6849680C439C60C6
:100B300080F83D20002180F83C10084630BD02209E
:100B400030BD10B5040003D094F83D0010B107E0AB
:100B5000012010BD002084F83C00204600F00CF875
:100B6000022084F83D00211D206800F0ADFB01202B
:100B700084F83D00002010BD08B501681D48B1F1A2
:100B8000804F11D01C4A91421DD1C16941F0020130
:100B9000C161C069002200F00200009002211D2006
:100BA000FFF7C6FC1D201FE0C16941F00101C161D2
:100BB000C069002200F00100009003211C20FFF713
:100BC000B7FC1C2010E00D4A914211D1C16941F0DF
:100BD0000401C161C069002200F0040000901146C8
:100BE0001E20FFF7A5FC1E20BDE80840FFF795BCBE
:100BF00008BD000000100240000400400008004052
:100C0000022180F83D1001680A6842F001020A6082
:100C1000012180F83D10002070470168CA6842F049
:100C20000102CA600068016841F001010160002012
:100C30007047022180F83D1001680A6A41F21113E1
:100C40001A4207D10A6A9B101A4203D10A6822F09D
:100C500001020A60012180F83D1000207047016800
:100C6000CA6822F00102CA600068016A41F21112EA
:100C7000114207D1016A9210114203D1016821F09B
:100C8000010101600020704770B5044690F83C00F7
:100C9000012817D0012584F83C50022084F83D003B
:100CA0002068826822F0770222F47F42826008681E
:100CB000502837D00DDC202859D005DC88B3102807
:100CC00041D151E0022070BD302853D040283AD1A4
:100CD0003FE060282ED070280BD0B0F5805F03D0A5
:100CE000B0F5005F2FD110E02068816821F0070186
:100CF00015E0CB68D1E90121206800F01BFB2168D9
:100D0000886840F0770088601DE0CB68D1E9012158
:100D1000206800F00FFB2068816841F48041816009
:100D200011E01EE0CA684968206800F015FB5021F8
:100D3000206806E0CA684968206800F01EFB602150
:100D4000206800F001FB84F83D50002084F83C004E
:100D500070BDCA684968206800F0FEFA402120682A
:100D6000EFE700212068ECE710212068E9E7202167
:100D70002068E6E730212068E3E7704770B5044655
:100D8000006801694FF00005C943890715D4C1689F
:100D9000C943890711D4E91E016101202077206829
:100DA00080698007204602D0FFF7E7FF04E000F0EB
:100DB00098F8204600F096F8257720680169C94325
:100DC000490717D4C168C943490713D46FF0040118
:100DD0000161022020772068806910F4407F20465E
:100DE00002D0FFF7CAFF04E000F07BF8204600F0D5
:100DF00079F8257720680169C943090716D4C168C5
:100E0000C943090712D46FF008010161042020775B
:100E10002068C0698007204602D0FFF7AEFF04E0DB
:100E200000F05FF8204600F05DF825772068016942
:100E3000C943C90617D4C168C943C90613D46FF0A2
:100E400010010161082020772068C06910F4407FFC
:100E5000204602D0FFF791FF04E000F042F8204660
:100E600000F040F8257720680169C943C90708D117
:100E7000C168C943C90704D1891E0161204600F039
:100E800032F820680169C943090609D4C168C94319
:100E9000090605D46FF0800101612046FFF727FEA7
:100EA00020680169C943490609D4C168C943490694
:100EB00005D46FF040010161204600F015F820686C
:100EC0000169C94389060BD4C168C943890607D49F
:100ED0006FF0200101612046BDE87040FFF708BEB9
:100EE00070BD704770477047704770B5040004D0FC
:100EF00094F83900002510B106E0012070BD84F897
:100F00003850204600F022F8242084F83900206868
:100F1000C16821F40051C160204600F041FA206808
:100F2000016921F4904101612068416921F02A01A1
:100F300041612068C16841F40051C160E56320202F
:100F400084F8390084F83A00002070BD10B50068BC
:100F5000114986B088421DD11048816941F4804111
:100F6000816180690E4C00F4804004904FF4007061
:100F70000090022001900320039069462046FFF76D
:100F800055F900212015CDE900010291694620465E
:100F9000FFF74CF906B010BD0038014000100240C8
:100FA00000080140FEE700002DE9F041244886B02A
:100FB000816941F004018161816901F004010491BA
:100FC000816941F0080181618069DFF8788000F073
:100FD00008000490002280214046FFF705FA1A4FCE
:100FE000012240F67A413846FFF7FEF980200125BC
:100FF00000240226CDE90005CDE9024669464046B7
:10100000FFF714F940F67B40CDE90005CDE9024633
:1010100069463846FFF70AF9280200900B48CDE9E7
:10102000010469464046FFF701F90022012117201B
:10103000FFF77EFA1720FFF770FA06B0BDE8F081DF
:101040000010024000080140000C01400000311077
:1010500010B5134886B04FF08041016043F67F61C0
:101060000024C0E901144521C0E903148461FFF79D
:1010700068FD00B1FEE74FF48050009069460848D3
:10108000FFF702FE00B1FEE7049404A904480594AA
:10109000FFF72FFD002800D0FEE706B010BD0000CE
:1010A0002800002010B5134886B0114901600F21B7
:1010B0000024C0E901144FF6E851C0E9031484612B
:1010C000FFF73FFD00B1FEE74FF480500090694606
:1010D0000848FFF7D9FD00B1FEE7049404A90548CC
:1010E0000594FFF706FD002800D0FEE706B010BD0E
:1010F000000400406800002010B5134886B0114974
:1011000001600F210024C0E901141321C0E9031478
:101110008461FFF716FD00B1FEE74FF480500090A8
:1011200069460948FFF7B0FD00B1FEE7049404A941
:1011300005480594FFF7DDFC002800D0FEE706B067
:1011400010BD000000080040A8000020FEE7704726
:101150000907090E002806DA00F00F0000F1E02070
:1011600080F8141D704700F1E02080F800147047EB
:101170007047704710B5FFF743F9BDE81040FFF71F
:10118000B2BC30B58FB0022501200490009510202C
:1011900005900024C003CDE9084007956846FFF795
:1011A000FFFA00B1FEE70F200A90CDE90B540D9431
:1011B00000210AA80E94FFF7EDF900B1FEE7FFF752
:1011C00093FA4FF47A71B0FBF1F0FFF778FC04204A
:1011D000FFF768FC00221146501EFFF7A9F90FB077
:1011E00030BD00000D48016841F001010160416817
:1011F0000B4A1140416001680A4A114001600168D0
:1012000021F480210160416821F4FE0141604FF426
:101210001F0181600449C00308607047001002404C
:101220000000FFF8FFFFF6FE08ED00E010B5012218
:1012300080210C48FFF7D8F80B496FF001000968CE
:1012400008610948FFF7DCFC0748FFF7E6FC0748A0
:10125000FFF7EFFC0548FFF702FDBDE8104003482B
:10126000FFF78CBD00080140A800002028000020E6
:101270000148FFF783BD00006800002010B5002280
:1012800080210E48FFF7B0F80D486FF001040068A8
:1012900004610B48FFF7CDFC0948FFF7E0FC094863
:1012A000006804610748FFF7ABFC0648FFF7B5FC90
:1012B000BDE810400248FFF761BD00000008014092
:1012C000A800002028000020F0B50268164B174C3B
:1012D000174D4FF08047984205D0B84203D0A04246
:1012E00001D0A84203D122F070064A6832439842E6
:1012F00005D0B84203D0A04201D0A84203D122F4C5
:101300004074CA68224322F080044A692243026082
:101310008A68C2620A688262984201D109690163DF
:1013200001214161F0BD0000002C0140000400409B
:101330000008004010B5846842EA032224F47F4488
:101340000A432243826010BD826822F070020A4381
:1013500042F007018160704710B5036A046A24F007
:1013600001040462846924F0F00444EA021423F0C6
:101370000A020A438461026210BD10B5036A23F0B9
:10138000100303628369046A23F4704343EA023260
:1013900024F0A00343EA01118261016210BD000044
:1013A0002DE9F041044600680169E26821F44051EA
:1013B000114301612169A0680843616908432168FC
:1013C000CA6841F20C639A430243CA6020684169CB
:1013D000A26921F44071114341614C4920686425A0
:1013E000322688423CD1FFF795F900EBC00101EBB2
:1013F000001061688900B0FBF1F7FFF78BF900EB93
:10140000C00101EB00106168B0468900B0FBF1F04B
:10141000B0FBF5F06FF01801484307EB800106EBD5
:101420000110B0FBF5F000F0F006FFF773F900EBE8
:10143000C00101EB001061688900B0FBF1F0B0FB66
:10144000F5F006EB0016FFF765F900EBC00101EBC4
:10145000001061688900B0FBF1F7FFF75BF93BE032
:10146000FFF748F900EBC00101EB0010616889004B
:10147000B0FBF1F7FFF73EF900EBC00101EB001004
:101480006168B0468900B0FBF1F0B0FBF5F06FF099
:101490001801484307EB800106EB0110B0FBF5F0A3
:1014A00000F0F006FFF726F900EBC00101EB001099
:1014B00061688900B0FBF1F0B0FBF5F006EB0016B7
:1014C000FFF718F900EBC00101EB0010616889001B
:1014D000B0FBF1F7FFF70EF900EBC00101EB0010D4
:1014E00061688900B0FBF1F0B0FBF5F06FF0180116
:1014F000484307EB800108EB0110B0FBF5F02168D1
:1015000000F00F0030448860BDE8F08100380140F1
:10151000FEE702E008C8121F08C1002AFAD170478E
:101520007047002001E001C1121F002AFBD1704763
:10153000FEF76EFFFFF725FEFFF736FD3348324911
:101540000C2201604FF41641416000218160C160AE
:10155000C0E904128161C161FFF7C7FC00B1FEE779
:10156000FFF776FDFFF79EFDFFF7C6FD40F6B830AA
:10157000FEF73CFE2548C038FFF742FB2348C03841
:10158000FFF74BFB224C234D39264FF40067208890
:10159000B0FBF6F06080D4E90101401A618888420E
:1015A00011DDFEF727FFE060002239462846FEF7EE
:1015B0001BFF002202212846FEF716FF01221146DA
:1015C0002846FEF711FFD4E90101084461888842EA
:1015D000DDDAFEF70FFFE168401A21698842D6D3B1
:1015E000FEF708FFE060012239462846FEF7FCFEC0
:1015F000012202212846FEF7F7FE0022012128469B
:10160000FEF7F2FEC3E7000000380140E8000020CA
:1016100000000020000C014000000000000000005D
:101620000102030406070809000000000102030488
:1016300050160008000000202800000012150008C5
:101640007816000828000020000500002215000878
:10165000000000005E010000140000000000000017
:10166000F401000000000000010000001000000074
:081670000000000000A24A0482
:04000005080000ED02
:00000001FF
