:020000040800F2
:10000000300500200101000853110008AD0F000861
:1000100051110008490100081515000800000000F2
:100020000000000000000000000000007711000840
:100030004B0100080000000075110008791100084C
:100040001B0100081B0100081B0100081B01000820
:100050001B0100081B0100081B0100081B01000810
:100060001B0100081B0100081B0100081B01000800
:100070001B0100081B0100081B0100081B010008F0
:100080001B0100081B0100081B0100081B010008E0
:100090001B0100081B0100081B0100084D0100089E
:1000A0001B0100081B0100081B0100081B010008C0
:1000B0003112000875120008811200081B010008A7
:1000C0001B0100081B0100081B0100081B010008A0
:1000D0001B0100081B0100081B0100081B01000890
:1000E0001B0100081B0100081B010008DFF80CD0F1
:1000F00000F018F8004800473515000830050020CA
:100100000648804706480047FEE7FEE7FEE7FEE7B1
:10011000FEE7FEE7FEE7FEE7FEE7FEE7E91100087F
:10012000ED000008064C074D06E0E06840F00103D2
:1001300094E8070098471034AC42F6D3FFF7DAFF93
:10014000AC160008CC160008FEE7704770B5214ECB
:10015000214C6FF001003178251D31B31F490A6829
:1001600022F001020A601D4924310A681C4B1A80E2
:1001700000220A603270296821F4807129602168A8
:1001800041F480712160174909680861154800F041
:100190003BFD144800F045FD172000F0B7F9BDE81D
:1001A00070404FF4807000F035B80F49096808615D
:1001B0000D4800F029FD0C4800F033FD012030709F
:1001C000206820F480702060286840F480702860E7
:1001D000E2E700001800002008040140000400408D
:1001E000020000202C0000206C00002070B50446A6
:1001F00000F004F90546601C02D00448007804446D
:1002000000F0FCF8401BA042FAD370BD1C00002097
:1002100070470000044910B50A68024202D0086025
:10022000FFF7F6FF10BD0000140401402DE9F84F60
:10023000DFF890A100220AF1040B144601274FF0C9
:100240000F090BF1040E00BF0B6807FA04F52B40F1
:10025000AB4274D1DFF870C14E68A6EB0C0866455E
:100260002BD00DDC032E34D005DC36B3012E19D093
:10027000022E2FD11BE0112E16D0122E2AD119E0FA
:10028000B8F5881F19D006DCB8F5803F15D0B8F551
:10029000801F1FD111E0B8F5001F0ED0B8F5041F64
:1002A00018D10AE0CA6815E0CA68121D12E0CA68CF
:1002B00008320FE0CA680C320CE08A682AB1012AC1
:1002C0004FF0080203D0456104E0042202E005611A
:1002D00000E00022FF2B01D8064601E000F10406F1
:1002E0004FEA840501D9A5F12005D6F800C009FA26
:1002F00005F82CEA080C02FA05F54CEA050CC6F8DC
:1003000000C04D68ED0057D5304DAE6946F001068E
:10031000AE61AD6924F0030605F0010500952C4D92
:1003200006EB050CDCF80850A6074FEA167809FA28
:1003300008F6B543274EB04202D1002610E03BE05C
:10034000254EB04201D101260AE0244EB04201D12F
:10035000022605E0224EB04201D1032600E0042629
:1003600006FA08F62E43CCF808604D68DAF800600B
:10037000ED03554601D51E4300E09E432E604D68B7
:10038000DBF80060AD035D4601D51E4300E09E43EF
:100390002E604D68DEF80060ED02754601D51E4303
:1003A00000E09E432E604D68AD020E4D2E6801D5D3
:1003B0001E4300E09E432E60641C102CFFF444AFEB
:1003C000BDE8F88F00040140000011100010024049
:1003D0000000014000080140000C014000100140F5
:1003E000001401400C0401408068084000D0012046
:1003F00070470AB1016170470904FBE70148806852
:10040000704700001C0000200248816802781144F7
:10041000816070471C000020074810B5016841F05A
:1004200010010160032000F0A7F8002000F006F89A
:1004300000F024F8002010BD0020024070B50D4DE2
:1004400004464FF47A712878B1FBF0F00A49096844
:10045000B1FBF0F000F037FB48B9102C07D20022B6
:100460002146501E00F068F800206C6070BD01202D
:1004700070BD00001C00002028000020214808B5A5
:10048000816941F001018161816901F001010091FF
:10049000C16941F08051C161C06900F08050009095
:1004A000032000F069F8002211466FF00B0000F005
:1004B00043F8002211466FF00A0000F03DF80022D8
:1004C00011466FF0090000F037F800221146501F66
:1004D00000F032F800221146101F00F02DF8002223
:1004E0001146901E00F028F800221146501E00F020
:1004F00023F80548416821F0E06141F00071416056
:1005000008BD0000001002400000014000F01F0282
:10051000012191404009800000F1E020C0F88012E4
:10052000704700F01F02012191404009800000F156
:10053000E020C0F800117047F0B40E4B1B680C4669
:10054000C3F30223C3F10705042D00D90425191DA7
:10055000072901D2002300E0DB1E012606FA05F17F
:10056000491E214099409E40761E16403143F0BC02
:1005700000F0F0BD0CED00E0064900F0070208684D
:100580004FF6FF03184040EA0220034A1043086078
:10059000704700000CED00E00000FA052DE9F0477F
:1005A000DFF83C8105460E46D8F8000000F0070051
:1005B000B0420CD2D8F8001021F007013143C8F83E
:1005C0000010D8F8000000F00700B04263D128788E
:1005D000444C800705D56068A96820F0F000084306
:1005E00060602878C00745D06868012816D0216867
:1005F000022816D0890700294DDA616821F003012D
:1006000001436160FFF7FAFE6968074641F28830EE
:1006100001290FD00229814619D027E021688903DA
:10062000E9E78901E7E700BFFFF7E8FEC11B49459D
:1006300001D918E081466068C0F381000128F3D138
:1006400018E000BFFFF7DAFEC11B49450BD8606810
:10065000C0F381000228F5D10CE000BFFFF7CEFE09
:10066000C11B494502D90320BDE8F087606810F03E
:100670000C0FF3D1D8F80010404601F00701B14249
:100680000BD9016821F0070131430160006800F0D7
:100690000700B04201D00120E6E72878400705D5E1
:1006A0006068E96820F4E06008436060287800072B
:1006B00006D56068296920F4605040EAC100606096
:1006C00000F03CF86168084AC1F30311515CC8406E
:1006D000064908600020FFF7B1FE0020C4E70000D3
:1006E000002002400010024094160008280000205C
:1006F00001480068704700002800002004480549B0
:1007000000684968044AC1F30221515CC84070473F
:100710002800002000100240A416000804480549E3
:1007200000684968044AC1F3C221515CC84070475F
:100730002800002000100240A416000812A185B075
:100740000FC98DE80F0014A0144A00680490516886
:10075000134801F00C03042B10D0082B0ED1C1F369
:100760008343C9031DF803000AD5516804AAC1F3E5
:100770004041515C0A4A5043B0FBF1F005B070476C
:1007800008494843FAE70000020304050607080980
:100790000A0B0C0D0E0F1010010200000010024099
:1007A00000127A0000093D002DE9F84F0446007858
:1007B000B94DC00748D06868C0F38100012807D050
:1007C0006868C0F38100022809D16868C00306D5B3
:1007D0002868800338D5606800286FD034E06068EE
:1007E000B0F5803F0BD010B1B0F5A02F11D0286824
:1007F00020F480302860286820F4802002E02868F7
:1008000040F480302860606888B1FFF7F7FD064645
:1008100009E0286840F480202860F0E7FFF7EEFD4B
:10082000801B642875D828688003F7D50CE0FFF793
:10083000E5FD064605E000BFFFF7E0FD801B6428EC
:10084000F0D828688003F7D42078944E80074FF0C2
:1008500001094FF000083BD5686810F00C0F07D075
:100860006868C0F38100022809D16868C00306D413
:100870002868800714D5206901281FD110E020695D
:10088000B0B1C6F80090FFF7B9FD074605E000BF1C
:10089000FFF7B4FDC01B0228C4D828688007F7D52D
:1008A0002868616920F0F80040EAC10028600FE084
:1008B000C6F80080FFF7A2FD074606E0E9E000BFAA
:1008C000FFF79CFDC01B022823D828688007F7D4B7
:1008D000207800072CD57248A169D9B1C0F80090E2
:1008E000FFF78CFD074604E0FFF788FDC01B0228D8
:1008F0000FD8686A8007F7D56A484FF4FA51006844
:10090000B0FBF1F0009000BF0098411E0091FAD2B8
:100910000EE080E0C0F80080FFF770FD074604E0BD
:10092000FFF76CFDC01B022875D8686A8007F7D4F2
:100930002078400760D5E8690027C00008D4E8693E
:1009400040F08050E861E869012700F08050009095
:1009500055480168C90513D40168834641F4807184
:100960000160FFF74BFD824606E000BFFFF746FD42
:10097000A0EB0A0064284ED8DBF80000C005F5D5CE
:10098000E06801280AD008B1052813D0286A20F0B1
:1009900001002862286A20F0040002E0286A40F082
:1009A00001002862E06841F2883B98B1FFF726FD1C
:1009B00082460BE0286A40F004002862EEE700BFA0
:1009C000FFF71CFDA0EB0A0159455AD8286A800799
:1009D000F6D50CE0FFF712FD824605E0FFF70EFDAD
:1009E000A0EB0A0159454CD8286A8007F6D41FB1FC
:1009F000E86920F08050E861E06988B36968C1F374
:100A00008101022945D00228C6F8608004D0FFF792
:100A1000F5FC044638E034E0FFF7F0FC074604E05C
:100A2000FFF7ECFCC01B02282BD828688001F7D404
:100A3000206AB0F5803F05D16868A16820F40030D5
:100A400008436860D4E908010843696821F4741117
:100A500008436860C6F86090FFF7D0FC044606E0E3
:100A600015E000BFFFF7CAFC001B022809D8286860
:100A70008001F7D50BE000BFFFF7C0FC001B022888
:100A800002D90320BDE8F88F28688001F4D4002043
:100A9000F8E70120F6E700000010024000004242A3
:100AA0008004424228000020007000404FF0E02106
:100AB0000428086903D020F004000861704740F062
:100AC0000400FAE7704710B5401EB0F1807F01D3F3
:100AD000012010BD4FF0E02460610F21601700F08D
:100AE00039FB0020A06107202061002010BD10B557
:100AF000FFF7E8FF10BD7047704730B590F83C2015
:100B0000012A20D0012280F83C20022380F83D30C9
:100B100003685C6824F070045C6003685C680D68BE
:100B20002C435C6003689C6824F080049C6003682C
:100B30009C6849680C439C6080F83D20002180F847
:100B40003C10084630BD022030BD10B5040003D073
:100B500094F83D0010B107E0012010BD002084F89A
:100B60003C00204600F00CF8022084F83D00211DD6
:100B7000206800F0ABFB012084F83D00002010BD90
:100B800008B501681D48B1F1804F11D01C4A91424F
:100B90001DD1C16941F00201C161C069002200F0AC
:100BA0000200009002211D20FFF7C6FC1D201FE05F
:100BB000C16941F00101C161C069002200F001007A
:100BC000009003211C20FFF7B7FC1C2010E00D4A09
:100BD000914211D1C16941F00401C161C069002293
:100BE00000F00400009011461E20FFF7A5FC1E2017
:100BF000BDE80840FFF795BC08BD000000100240AA
:100C00000004004000080040022180F83D10016807
:100C10000A6842F001020A60012180F83D100020BC
:100C200070470168CA6842F00102CA600068016842
:100C300041F00101016000207047022180F83D1061
:100C400001680A6A41F211131A4207D10A6A9B101D
:100C50001A4203D10A6822F001020A60012180F8D9
:100C60003D10002070470168CA6822F00102CA6086
:100C70000068016A41F21112114207D1016A921013
:100C8000114203D1016821F0010101600020704789
:100C900070B5044690F83C00012817D0012584F86F
:100CA0003C50022084F83D002068826822F07702E0
:100CB00022F47F4282600868502837D00DDC20285B
:100CC00059D005DC88B3102841D151E0022070BD15
:100CD000302853D040283AD13FE060282ED07028E9
:100CE0000BD0B0F5805F03D0B0F5005F2FD110E0DE
:100CF0002068816821F0070115E0CB68D1E9012166
:100D0000206800F019FB2168886840F0770088604F
:100D10001DE0CB68D1E90121206800F00DFB2068BF
:100D2000816841F48041816011E01EE0CA68496831
:100D3000206800F013FB5021206806E0CA6849686B
:100D4000206800F01CFB6021206800F0FFFA84F8A6
:100D50003D50002084F83C0070BDCA684968206896
:100D600000F0FCFA40212068EFE700212068ECE762
:100D700010212068E9E720212068E6E7302120687B
:100D8000E3E7704770B50446006801694FF000055D
:100D9000C943890715D4C168C943890711D4E91E1D
:100DA000016101202077206880698007204602D0F9
:100DB000FFF7E7FF04E000F098F8204600F096F80F
:100DC000257720680169C943490717D4C168C94319
:100DD000490713D46FF004010161022020772068D5
:100DE000806910F4407F204602D0FFF7CAFF04E07C
:100DF00000F07BF8204600F079F82577206801693B
:100E0000C943090716D4C168C943090712D46FF052
:100E100008010161042020772068C069800720460E
:100E200002D0FFF7AEFF04E000F05FF8204600F0CC
:100E30005DF8257720680169C943C90617D4C168E0
:100E4000C943C90613D46FF010010161082020774F
:100E50002068C06910F4407F204602D0FFF791FF60
:100E600004E000F042F8204600F040F825772068C2
:100E70000169C943C90708D1C168C943C90704D179
:100E8000891E0161204600F032F820680169C943DB
:100E9000090609D4C168C943090605D46FF0800169
:100EA00001612046FFF727FE20680169C943490612
:100EB00009D4C168C943490605D46FF040010161F6
:100EC000204600F015F820680169C94389060BD453
:100ED000C168C943890607D46FF02001016120462B
:100EE000BDE87040FFF708BE70BD7047704770479F
:100EF000704770B5040004D094F83900002510B193
:100F000006E0012070BD84F83850204600F022F839
:100F1000242084F839002068C16821F40051C160A0
:100F2000204600F03FFA2068016921F490410161F8
:100F30002068416921F02A0141612068C16841F4BB
:100F40000051C160E563202084F8390084F83A003C
:100F5000002070BD10B50068114986B088421DD1CF
:100F60001048816941F48041816180690E4C00F430
:100F7000804004904FF40070009002200190032004
:100F8000039069462046FFF751F900212015CDE96D
:100F90000001029169462046FFF748F906B010BDEE
:100FA000003801400010024000080140FEE7000048
:100FB0002DE9F041234886B0816941F00401816147
:100FC000816901F004010491816941F008018161A6
:100FD0008069DFF8748000F008000490002280210E
:100FE0004046FFF706FA194F012240F67A4138468B
:100FF000FFF7FFF980200124002502268DE871000B
:1010000069464046FFF712F940F67B40CDE90004FF
:10101000CDE9024669463846FFF708F920020090FC
:101020000B48CDE9010569464046FFF7FFF800226D
:1010300001211720FFF780FA1720FFF772FA06B098
:10104000BDE8F0810010024000080140000C0140A2
:101050000000311010B5134886B04FF08041016098
:1010600043F67F610024C0E901144521C0E903145F
:101070008461FFF76AFD00B1FEE74FF480500090F5
:1010800069460848FFF704FE00B1FEE7049404A98E
:1010900004480594FFF731FD002800D0FEE706B0B4
:1010A00010BD00002C00002010B5134886B0114977
:1010B00001600F210024C0E901144FF6E851C0E996
:1010C00003148461FFF741FD00B1FEE74FF4805047
:1010D000009069460848FFF7DBFD00B1FEE7049485
:1010E00004A905480594FFF708FD002800D0FEE795
:1010F00006B010BD000400406C00002010B513487D
:1011000086B0114901600F210024C0E901141321A8
:10111000C0E903148461FFF718FD00B1FEE74FF446
:101120008050009069460948FFF7B2FD00B1FEE724
:10113000049404A905480594FFF7DFFC002800D0BB
:10114000FEE706B010BD000000080040AC00002023
:10115000FEE770470907090E002806DA00F00F00C5
:1011600000F1E02080F8141D704700F1E02080F8C5
:10117000001470477047704710B5FFF745F9BDE898
:101180001040FFF7B4BC30B58FB0022501200490A9
:101190000095102005900024C003CDE90840079574
:1011A0006846FFF701FB00B1FEE70F200A90CDE98A
:1011B0000B540D9400210AA80E94FFF7EFF900B12B
:1011C000FEE7FFF795FA4FF47A71B0FBF1F0FFF705
:1011D0007AFC0420FFF76AFC00221146501EFFF73C
:1011E000ABF90FB030BD00000D48016841F00101BE
:1011F000016041680B4A1140416001680A4A114090
:101200000160016821F480210160416821F4FE0140
:1012100041604FF41F0181600449C00308607047BA
:10122000001002400000FFF8FFFFF6FE08ED00E0AE
:1012300010B5012280210C48FFF7DBF80B496FF055
:101240000100096808610948FFF7DEFC0748FFF75D
:10125000E8FC0748FFF7F1FC0548FFF704FDBDE88F
:1012600010400348FFF78EBD00080140AC0000208D
:101270002C0000200148FFF785BD00006C00002015
:1012800010B5002280210E48FFF7B3F80D486FF02B
:101290000104006804610B48FFF7CFFC0948FFF721
:1012A000E2FC0948006804610748FFF7ADFC064806
:1012B000FFF7B7FCBDE810400248FFF763BD000030
:1012C00000080140AC0000202C000020F0B50268AE
:1012D000164B174C174D4FF08047984205D0B84237
:1012E00003D0A04201D0A84203D122F070064A6880
:1012F0003243984205D0B84203D0A04201D0A84260
:1013000003D122F44074CA68224322F080044A695F
:10131000224302608A68C2620A688262984201D1EE
:101320000969016301214161F0BD0000002C014009
:10133000000400400008004010B5846842EA03221F
:1013400024F47F440A432243826010BD826822F065
:1013500070020A4342F007018160704710B5036ACA
:10136000046A24F001040462846924F0F00444EA6D
:10137000021423F00A020A438461026210BD10B510
:10138000036A23F0100303628369046A23F4704341
:1013900043EA023224F0A00343EA011182610162B0
:1013A00010BD00002DE9F041044600680169E268C3
:1013B00021F44051114301612169A068084361692A
:1013C00008432168CA6841F20C639A430243CA6029
:1013D00020684169A26921F44071114341614C497F
:1013E00020686425322688423CD1FFF797F900EB4C
:1013F000C00101EB001061688900B0FBF1F7FFF755
:101400008DF900EBC00101EB00106168B046890066
:10141000B0FBF1F0B0FBF5F06FF01801484307EBBB
:10142000800106EB0110B0FBF5F000F0F006FFF7CD
:1014300075F900EBC00101EB001061688900B0FB99
:10144000F1F0B0FBF5F006EB0016FFF767F900EBE3
:10145000C00101EB001061688900B0FBF1F7FFF7F4
:101460005DF93BE0FFF74AF900EBC00101EB00102A
:1014700061688900B0FBF1F7FFF740F900EBC001AC
:1014800001EB00106168B0468900B0FBF1F0B0FBE1
:10149000F5F06FF01801484307EB800106EB0110EF
:1014A000B0FBF5F000F0F006FFF728F900EBC00103
:1014B00001EB001061688900B0FBF1F0B0FBF5F0C2
:1014C00006EB0016FFF71AF900EBC00101EB001064
:1014D00061688900B0FBF1F7FFF710F900EBC0017C
:1014E00001EB001061688900B0FBF1F0B0FBF5F092
:1014F0006FF01801484307EB800108EB0110B0FBC7
:10150000F5F0216800F00F0030448860BDE8F081FC
:1015100000380140FEE702E008C8121F08C1002A97
:10152000FAD170477047002001E001C1121F002A64
:10153000FBD17047FEF770FFFFF725FEFFF738FD80
:10154000514850490C2201604FF41641416000217E
:101550008160C160C0E904128161C161FFF7C9FC0B
:1015600000B1FEE7FFF776FDFFF79EFDFFF7C6FD32
:1015700040F6B830FEF73AFE4348C038FFF744FB68
:101580004148C038FFF74DFB404D40212846FEF74B
:101590002BFF3F4C21780843207020212846FEF77E
:1015A00023FF217841EA4000207010212846FEF7F1
:1015B0001BFF217841EA8000207008212846FEF7B1
:1015C00013FF217841EAC000207021784FF4AF70FA
:1015D0000B2910D006DC012913D003290FD00729CD
:1015E00010D10AE00D2904D00E290BD14FF49670CA
:1015F00008E0FA2006E0C82004E0962002E064201B
:1016000000E0322039264FF40067A0606088B0FB0C
:10161000F6F0A080D4E90201401AA188884211DDC9
:10162000FEF7ECFE2061002239462846FEF7E1FE77
:10163000002202212846FEF7DCFE01221146284640
:10164000FEF7D7FED4E902010844A1888842DDDA1A
:10165000FEF7D4FE2169401A61698842D6D3FEF7AD
:10166000CDFE2061012239462846FEF7C2FE012246
:1016700002212846FEF7BDFE002201212846FEF782
:10168000B8FEC3E700380140EC000020000C014028
:101690000000002000000000000000000102030420
:1016A000060708090000000001020304CC16000828
:1016B000000000202C00000016150008F816000895
:1016C0002C00002004050000261500080000000082
:1016D000000000005E0100000A00000000000000A1
:1016E00020030000000000000100000010000000C6
:0816F0000000000000A24A0402
:04000005080000ED02
:00000001FF
