:020000040800F2
:1000000018050020D500000819110008890F000804
:1000100000000000000000000000000000000000E0
:100020000000000000000000000000006311000854
:1000300000000000000000006111000865110008C8
:10004000E7000008E7000008E7000008E7000008F4
:10005000E7000008E7000008E70000084101000889
:10006000E7000008E7000008E7000008E7000008D4
:10007000E7000008E7000008E7000008E7000008C4
:10008000E70000084512000881120008E700000898
:10009000E7000008E7000008E7000008E7000008A4
:1000A000E7000008E7000008E7000008E700000894
:1000B000E7000008E7000008E7000008E700000884
:1000C0000348854600F02AF800480047F117000869
:1000D000180500200448804704480047FEE7FEE773
:1000E000FEE7FEE7FEE7FEE7E9110008C1000008B1
:1000F00030B50B46014600202022012409E00D46C0
:10010000D5409D4205D31D469540491B2546954047
:1001100040191546521E002DF1DC30BD064C01255C
:10012000064E05E0E36807CC2B430C3C984710349F
:10013000B442F7D3FFF7C8FFE81800080819000811
:1001400070B5184E01253078174C002817481DD07F
:1001500000F08EFD15480168486A154A10600020BD
:1001600048623070E068A843E060A0682843A0605F
:100170000E4800F071FD0D4800F062FD60692843F3
:1001800060610120800200F025F870BD00F058FD8C
:100190003570A06840084000A060E0682843E06037
:1001A000EFE70000000000200004014024000020D0
:1001B0000400002031B500F0CBF8009C0546601C1F
:1001C00000D0641C00F0C4F8401BA042FAD338BD34
:1001D0007047000010B504494A69024202D04861E4
:1001E000FFF7F6FF10BD000000040140F8B5002342
:1001F00093E0224601249C40A44622407ED04C68D5
:10020000022C01D0122C0CD1DC08A40027183C6A67
:100210005D07ED0E0F26AE40B4430E69AE40264397
:100220003E6205685E000324B4400F79A543BF0712
:10023000BF0FB7402F4307604D68012D05D0022D39
:1002400003D0112D01D0122D0ED18568CF68A543A2
:10025000B7402F43876047686546AF430D79ED0689
:10026000ED0F9D403D434560C568A5438C68B44093
:100270002C43C4604C68E4004ED52B4CA569012684
:100280003543A561A4699D0834400094274CAD0016
:100290002F19BC689D072E0F0F25B540AC430925CB
:1002A000ED06A84201D1002514E0214DA84201D15C
:1002B00001250FE01F4DA84201D102250AE01E4D85
:1002C000A84201D1032505E01C4DA84201D1042517
:1002D00000E00525B5402543BD60194C25684E68F2
:1002E0009543F60300D51543256065684E68954330
:1002F000B60300D515436560A56800E00CE04E68C4
:100300009543F60200D51543A560E5684E68954310
:10031000B60200D51543E5605B1C0A681446DA4056
:1003200000D066E7F8BD0000001002400000014068
:100330000004004800080048000C00480010004875
:1003400000040140002A01D081617047816270473A
:10035000014800687047000018000020024801684A
:10036000491C0160704700001800002010B50648C5
:100370000168102211430160002000F007F800F02E
:1003800017F8002010BD00000020024010B5044600
:1003900000F078F97D21C900FFF7AAFE00F0C6FB46
:1003A00000222146501E00F02FF8002010BD000052
:1003B00008B50F48816901221143816181691140AB
:1003C0000091C26901040A43C261C0690022084069
:1003D00000901146501F00F017F800221146901EA1
:1003E00000F012F800221146501E00F00DF808BD72
:1003F00000100240C106C90E012088400149086072
:100400007047000000E100E010B500F087FE10BD6D
:10041000F8B504460068434DC00352D5E86900268C
:10042000C00007D4E96928040143E961E969014092
:10043000012600913C480168C90510D40168821565
:1004400011430160FFF784FF074604E0FFF780FFD8
:10045000C01B642824D834480068C005F6D5286A33
:1004600003273F02384020D06168394081421CD0C8
:10047000286A2A6AB843012109040A432A622A6ABF
:100480008A432A622862C0070FD0FFF761FF0090FD
:1004900008E0FFF75DFF0099411A2448814201D925
:1004A0000320F8BD286A8007F3D5286A6168B8433D
:1004B00008432862002E04D0E86901210907884317
:1004C000E8612078C00705D0286BA168800880000B
:1004D000084328632078800706D5286B0321090488
:1004E0008843E168084328632078800605D5286B97
:1004F000102188432169084328632068800305D5BB
:10050000286B80218843A16908432863208840051F
:1005100005D5286B40218843616908432863002082
:10052000F8BD000000100240007000408813000079
:10053000F8B505464E480E460068C007C00FB042E9
:100540000AD24B48016849084900314301600068FC
:10055000C007C00FB04270D12878464C800705D53F
:100560006068F0218843A968084360602878C00764
:1005700053D06868012817D0022818D0032819D052
:1005800021688907002958DA6168890889000143D0
:100590006160FFF7DDFE69680746012913D0022973
:1005A0001DD0032927D034E021688903EAE72168B8
:1005B0008901E7E7616BC903E4E7FFF7C9FEC11BE7
:1005C0002D48814223D860680007800F0128F4D1AC
:1005D00023E0FFF7BDFEC11B2748814217D86068A2
:1005E0000007800F0228F4D117E0FFF7B1FEC11B0E
:1005F000214881420BD860680007800F0328F4D19E
:100600000BE0FFF7A5FEC11B1B48814201D9032067
:10061000F8BD60680007800FF3D115480168C9076D
:10062000C90FB1420BD90168490849003143016043
:100630000068C007C00FB04201D00120F8BD287883
:10064000400706D56068072109028843E968084326
:10065000606000F02DF86168084A0906090F515CD6
:10066000C840074908600020FFF790FE0020F8BD51
:10067000002002400010024088130000D01800083B
:100680001C00002001480068704700001C0000208A
:100690000448054900684968044A4905490F515C06
:1006A000C84070471C00002000100240E0180008FD
:1006B00030B516A30FCB89B06C460FC417A30FCB70
:1006C0000FC41A494A680C20144604401848042CE8
:1006D00005D0184B082C04D00C2C00D1184609B0BA
:1006E00030BD9402240F6D462C5DC96A04AD090724
:1006F000090FD203695C920F022A02D0032A00D1AB
:100700001846FFF7F5FC6043E9E700000203040523
:10071000060708090A0B0C0D0E0F10100102030446
:1007200005060708090A0B0C0D0E0F1000100240F9
:1007300000127A00006CDC02FEB504460078F04E30
:10074000F04DC00748D068680007800F01281FD00F
:1007500068680007800F022804D16868C003800F12
:10076000022815D06168012919D0012080040029D0
:1007700001D0052917D02968B14329602968814330
:100780002960606800281BD0FFF7E2FD074613E0F0
:100790002868800320D56068002876D01CE028688F
:1007A00030432860EDE7296801432960F7E7FFF748
:1007B000CFFDC01B642869D828688003F7D50BE0FB
:1007C000FFF7C6FD074604E0FFF7C2FDC01B642823
:1007D000F1D828688003F7D4207880073ED5686870
:1007E0000007800F14D068680007800F022804D12A
:1007F0006868C003800F01280AD0E06800282868D4
:100800001DD0012108432860FFF7A2FD07460BE039
:10081000286880070BD5E068012836D107E0FFF78C
:1008200097FDC01B0228C6D828688007F7D528681E
:10083000F82188432169C900084328600EE0400878
:1008400040002860FFF784FD074604E0FFF780FDC5
:10085000C01B0228AFD828688007F7D4207800078B
:1008600024D5E0690028686A11D001210843686234
:10087000FFF76EFD074604E0FFF76AFDC01B022884
:1008800099D8686A8007F7D510E036E1D1E04008D2
:1008900040006862FFF75CFD074604E0FFF758FD83
:1008A000C01B022887D8686A8007F7D420780427FD
:1008B0004007002861DA00200190E869C00008D4F0
:1008C000E969B8060143E961E96901400120009145
:1008D00001908D480168C90511D401688215114342
:1008E0000160FFF735FD009005E0FFF731FD00994D
:1008F000401A642897D884480068C005F5D5A068D8
:1009000001280AD0002801D0052811D0286A400803
:1009100040002862286AB84302E0286A012108439F
:100920002862A068002812D0FFF712FD00900AE0AC
:10093000286A38432862F0E7FFF70AFD0099411A58
:100940007248814275D8286A8007F5D50DE0FFF717
:10095000FFFC009006E0FFF7FBFC0099411A6B4892
:10096000814266D8286A8007F5D40198002804D00F
:10097000E969012000078143E9612078C00635D587
:10098000606901280CD0401D686B24D0384368632F
:10099000686B400840006863FFF7DAFC074622E016
:1009A000686B38436863686B012108436863FFF72D
:1009B000CFFC074604E0FFF7CBFCC01B022838D869
:1009C000686B8007F7D5686BF8218843A169C90077
:1009D000084368630AE0B8436863F4E7FFF7B8FCCC
:1009E000C01B022825D8686B8007F7D420788006C2
:1009F00037D568680007800F032813D068680007A0
:100A0000800F022804D16868C003800F032809D032
:100A1000206A0028686B16D030436863FFF798FCA3
:100A200006460CE0686BC0031BD5206A012864D120
:100A300017E05BE0FFF78CFC801B022856D8686B40
:100A4000C003F7D50DE0B0436863FFF781FC0646AD
:100A500004E0FFF77DFC801B022847D8686BC003C9
:100A6000F7D4606A002846D069680907890F02290F
:100A700043D0012636060228286805D0B0432860F6
:100A8000FFF766FC044633E0B0432860FFF760FCE4
:100A9000074604E0FFF75CFCC01B022826D8286844
:100AA0008001F7D4E86A216B000900010843E8627D
:100AB000A16AE06A084369687B22D2039143084334
:100AC0006860286830432860FFF742FC044604E071
:100AD000FFF73EFC001B022808D828688001F7D5E4
:100AE00009E0FFF735FC001B022801D90320FEBDF9
:100AF00028688001F5D40020FEBD0120FEBD000065
:100B00000000010000100240007000408813000047
:100B1000042204490428086902D090430861704700
:100B20001043FBE700E000E070470000094910B502
:100B3000401E884201D9012010BD074C606103218D
:100B4000081F00F0EBFA0020A061072020610020C0
:100B500010BD0000FFFFFF0000E000E010B5FFF750
:100B6000E3FF10BD7047704770B502462032137F17
:100B7000012B1BD001231377022454770468656886
:100B80007026B5436560046865680E683543656026
:100B90000468A5688026B543A56000688468496834
:100BA0000C43846053770020107770BD022070BD25
:100BB00070B5040005D025462035687F002802D096
:100BC00006E0012070BD00202877204600F00AF8DA
:100BD00002206877211D206800F06AFB01206877F9
:100BE000002070BD08B5134A0168134891420DD129
:100BF000C26910210A43C261C06900220840009006
:100C000003211120FFF700FC11200FE00B4A914255
:100C10000ED1C26920210A43C261C0690022084086
:100C2000009002211220FFF7EFFB1220FFF7E2FBFA
:100C300008BD0000001000400010024000140040F9
:100C40000222014620314A770268136801200343DB
:100C500013604877002070470268D36801210B4376
:100C6000D360006802680A430260002070470000F9
:100C700002210246203251770168086A074B184268
:100C800007D1086A9B10184203D108684008400049
:100C9000086001205077002070470000111100000B
:100CA000704770B50446006801690025C94389078B
:100CB000002915DBC168C943890711D4E91E016108
:100CC00001202077206880698007204602D0FFF746
:100CD000E7FF04E000F096F8204600F094F825774E
:100CE00020680169C943490717D4C168C943490746
:100CF00013D40421C9430161022020772068806950
:100D00008005800F204602D0FFF7CAFF04E000F004
:100D100079F8204600F077F8257720680169C94303
:100D2000090716D4C168C943090712D40821C94369
:100D30000161042020772068C0698007204602D026
:100D4000FFF7AEFF04E000F05DF8204600F05BF82E
:100D5000257720680169C943C90617D4C168C9430A
:100D6000C90613D41021C9430161082020772068E7
:100D7000C0698005800F204602D0FFF791FF04E094
:100D800000F040F8204600F03EF825772068016921
:100D9000C943C90708D1C168C943C90704D1891E1D
:100DA0000161204600F030F820680169C943090656
:100DB00009D4C168C943090605D48021C94301612A
:100DC0002046FFF7CFFE20680169C943490609D4D0
:100DD000C168C943490605D44021C9430161204681
:100DE00000F013F820680169C943890609D4C16875
:100DF000C943890605D42021C94301612046FFF774
:100E0000B2FE70BD704770477047704770B5040000
:100E100005D025466035687A002802D006E001201A
:100E200070BD00202872204600F026F82420687249
:100E300020680168490849000160204600F022FB53
:100E40000128EDD0606A002802D0204600F07AFA2E
:100E5000206841680922D20291434160206881687C
:100E60002A229143816020680168012211430160B8
:100E7000204600F0CDFA70BD00B500680D4987B07E
:100E8000884215D10C488269012189030A43826195
:100E9000806908400590C020009002200021019048
:100EA000032002910491039069460448FFF79EF9DC
:100EB00007B000BD003801400010024000040048A7
:100EC000FFB5064604466036707A83B00D4620288A
:100ED00058D1002D0CD00598002809D00120A16818
:100EE0000003814207D12069002804D1E80702D01D
:100EF000012007B0F0BD307A012843D001203072C4
:100F00000020E06621207072FFF722FA0190274648
:100F10004037059838820598788218E0788A401E14
:100F2000788206980090002280212046019B00F0E4
:100F300057FB002818D10120A1680003814202D18B
:100F40002069002812D02168287808856D1C788ACD
:100F50000028E3D106980090002240212046019B02
:100F600000F03EFB002808D00320C2E72888216853
:100F7000C005C00D0885AD1CE9E720207072002077
:100F80003072B6E70220B4E7FEE70000F0B5314862
:100F900087B042690121C9040A43426142690A409B
:100FA0000592426989100A43426142690A400592EA
:100FB000426949000A43426140691F240840A40174
:100FC0000590012221462448FFF7BCF9012676024C
:100FD000092000223146C006FFF7B4F9771000223D
:100FE00039461E48FFF7AEF900940024012501950B
:100FF0000294694618480394FFF7F8F80920019510
:101000006946C006009603950294FFF7EFF8A80220
:10101000009013480190092069460294C006FFF72A
:10102000E5F8029469460D48009701950394FFF78F
:10103000DDF801946946094800960294FFF7D6F856
:10104000002201210720FFF7DFF90720FFF7D2F97F
:1010500007B0F0BD0010024000080048000400483E
:10106000000031101CB50D480B49016000242F21F0
:10107000846041600A498461C160FFF799FD0028DE
:1010800000D0FEE70094694604480194FFF76CFD28
:10109000002800D0FEE71CBD001000402400002006
:1010A000FAFF00001CB50D480B49016000242F21F8
:1010B000846041600A218461C160FFF779FD0028E6
:1010C00000D0FEE70094694604480194FFF74CFD08
:1010D000002800D0FEE71CBD001400406400002082
:1010E00010B50C480A4901604B21490241600021BA
:1010F0008160C16001618161C1610C220162426154
:101100004162FFF783FE002800D0FEE710BD00001B
:1011100000380140A4000020704700008307FF2230
:10112000DB0E9A408907090E994000280BDA000768
:10113000000F0838830808489B001818C3699343B8
:101140000B43C3617047830804489B001B18186851
:10115000904308431860704700ED00E000E400E0B1
:101160007047704710B5FFF7F9F8FFF7F7FC10BDAF
:1011700070B598B002251020099504900095C00222
:101180000A904001012600240B9003960C946846B7
:10119000FFF7D2FA002800D0FEE707200D900F9449
:1011A00001210E9510940DA8FFF7C2F9002800D078
:1011B000FEE711A811961394FFF72AF9002800D032
:1011C000FEE7FFF75FFA7D21C900FEF791FFFFF709
:1011D000ADFC0420FFF79CFC00221146501EFFF7D7
:1011E00013F918B070BD00001248016801221143C4
:1011F00001604168104A1140416001680F4A114086
:1012000001600168012292049143016041683F221C
:10121000120491434160C16A09090901C162016B6D
:10122000074A11400163416B4908490041630021AD
:1012300081607047001002400CB8FF08FFFFF6FE07
:101240002CFEFCFF10B50B480169490849000161FB
:10125000411509200122C006FFF774F80648C2684C
:1012600001210A43C26002680A4302600348FFF793
:1012700018FD10BD001000400014004024000020A4
:1012800010B5094C20694008400020610920002267
:101290006115C006FFF756F8E06840084000E060BE
:1012A0000248FFF7FEFC10BD00140040640000205F
:1012B000F0B502681D4B0124A4071D4D984203D0D0
:1012C000A04201D0A84203D17026B2434E683243F7
:1012D000184E194F98420DD0A0420BD0A84209D009
:1012E000164CA04206D0B04204D0B84202D0144CF2
:1012F000A04204D103242402A243CC6822438024C8
:10130000A2434C69224302608A68C2620A68826210
:10131000984206D0B04204D0B84202D0084A904267
:1013200001D10969016301214161F0BD002C014037
:101330000004004000400140004401400020004003
:101340000048014010B5818CC90707D001684A6880
:1013500001235B049A43836A1A434A60818C89079C
:1013600007D501684A6801231B049A43C36A1A43DC
:101370004A60818C490707D501684A6801239B04AC
:101380009A43036B1A434A60818C090707D50168A9
:101390004A680123DB039A43436B1A434A60818CFA
:1013A000C90607D50268916801231B039943836B23
:1013B00019439160818C890607D501688A680123E9
:1013C0005B039A43C36B1A438A60818C490612D52A
:1013D00003685A6801210905046C8A4322435A6054
:1013E000026C8A4207D10268516803235B05994366
:1013F000436C19435160818C090607D501684A681E
:101400000123DB04806C9A4302434A6010BD000054
:10141000F8B500260446C666FEF79AFF054616494B
:101420002068884202D0154988421DD10068144FB7
:10143000000709D501212B460022490520460097C7
:1014400000F0CEF800280DD12068006840070BD5C9
:1014500001212B46002289052046009700F0C0F8A4
:10146000002801D00320F8BD202060346072A072F3
:1014700026720020F8BD0000003801400044004002
:10148000FFFFFF01F8B504462369A268E5691A4326
:10149000636910202B43002125681A432B680E46F0
:1014A000474F3B4013432B6023685A6803252D03A5
:1014B000AA43E5682A435A60236AA26925681A4349
:1014C000AB680B273F02BB431343AB603D4F25681E
:1014D0003D4B0203BD420AD11B6B9B079B0F20D0E3
:1014E000012B14D0022B14D0032B1BD10DE0374F4E
:1014F000BD4210D11B6B03273F043B4011D09B1A08
:1015000005D09B1A05D093420CD102200AE004209A
:1015100008E0082006E02E4B9D4202D02D4B9D4254
:1015200000D100200123E769DB039F4222D100287C
:101530000CD002280DD0042813D0082817D001267B
:101540000A0912010807400F10432EE0FFF7A0F828
:1015500009E06168204A48088018FEF7C9FD81B299
:10156000EEE7FFF7A5F8616840004A08F4E7616814
:101570004808F1E7002808D0022809D004280CD038
:10158000082815D001263046F8BDFFF781F806E09F
:101590006168124A480880180DE0FFF789F8616811
:1015A0004A088018FEF7A4FD80B22168C860EAE707
:1015B00061684808C018FEF79BFD80B2E860E2E76A
:1015C000F369FFEF00380140001002400044004082
:1015D00000480040004C00400024F40000127A0053
:1015E000FFB581B017460E4604460A9D1DE0681CF3
:1015F0001BD0002D05D0FEF7ABFE0499401AA8427F
:1016000013D920680168FF22A1329143016020684C
:101610008168490849008160202060346072A072AE
:1016200000202072032005B0F0BD2068C16930465B
:10163000884304D00020B842D9D00020F3E701202D
:10164000F9E700000FB410B503A9044B044A02984F
:1016500000F018F810BC08BC04B01847D5170008F3
:101660002000002002E008C8121F08C1002AFAD199
:1016700070477047002001E001C1121F002AFBD112
:1016800070470000FFB58DB00446002506E0252810
:101690000AD0109A0F999047641C6D1C207800287E
:1016A000F5D1284611B0F0BD00270121484A009726
:1016B00000E00743641C23780846203B9840104212
:1016C000F7D120782E2817D1042007436078641CB6
:1016D0002A280CD10E98641C02C800910E900BE0D1
:1016E00000990A22514330394018641C0090207838
:1016F000014630390929F3D920780028D1D064284F
:1017000008D0692806D075281ED0109A0F999047E6
:101710006D1C5BE00A200E99019001C90E91002812
:1017200002DA40422D2102E0390504D52B216A4618
:101730001172012103E0F90704D02021F7E70BAE75
:101740000B910DE00021FAE70A200E99019001C9E2
:101750000E91F7E70199FEF7CBFC3031761E317020
:101760000028F7D103A8801B20300190780701D50D
:10177000009801E0012000900199884201DD401AA3
:1017800000E000200027009006E002A8109AC05D4B
:101790000F9990476D1C7F1C0B988742F5DB04E086
:1017A000109A30200F9990476D1C0099481E0090A8
:1017B0000029F5DC05E03078109A761C0F999047E7
:1017C0006D1C0199481E01900029F4DC641C65E73A
:1017D0000928010013B5044B012269460348FFF7AD
:1017E0006FFB00981CBD0000FFFF0000A40000205C
:1017F000FEF7BCFDFFF7BCFCFFF7C8FBFFF732FCB0
:10180000FFF750FCFFF76CFC2448FFF725FA012294
:1018100009205102C006FEF795FD2048FFF710FA97
:101820001F4C0F261F4FB601206839210546FEF7D1
:101830005FFC01462A461CA0FFF704FF39212068FF
:10184000FEF756FCA2686168891A88420AD2FEF740
:101850007FFDE060002231463846FEF773FD16A09A
:10186000FFF7F0FE39212068FEF742FCA2686168AC
:10187000891888420ED9FEF76BFDE168401A21698C
:10188000884207D3FEF764FDE06001223146384606
:10189000FEF758FD6420FEF78DFCC5E7240000200C
:1018A0000400002000080048533D256420636D2C8F
:1018B0002025640A0D000000212121212121212160
:1018C000212121212121212121212121210A0D0054
:1018D00000000000000000000102030406070809E0
:1018E00000000000010203040819000800000020A5
:1018F00024000000641600082C19000824000020B1
:10190000F40400007416000800000000000000004D
:10191000E00100000A000000000000006400000078
:0C1920000000000000127A00000000002F
:04000005080000C12E
:00000001FF
